:020000040000FA
:060000007DEF15F0120077
:020006001200E6
:0600080010EF08F01200E9
:02000E000400EC
:100010006F2B0000FE02000001000000492C0000D0
:100020008902000042000000C02B00000002000016
:1000300089000000802B00008000000040000000CC
:100040005CEC05F0FB0EDBCFF3FFDB06F3500009A1
:100050000AE0AAEC05F0FA0E15EC06F0F3E1211C1B
:10006000F1E1010E01D0000E8BEF05F05CEC05F024
:100070003B0EE12402E3E168E652E16E010EDB6A29
:10008000020EDB6AF90EDBCFF6FFFA0EDBCFF7FFCD
:10009000FB0EDBCFF8FF0800F550DF6EDF5002E10A
:1000A000AFEF04F0250EDF5C02E0A2EF04F0030ED8
:1000B000DB6A040EDB6A050EDB6A060EDB6A070EDE
:1000C000DB6AC4EC04F02D0EDF5C0CE02B0EDF5C71
:1000D00009E0200EDF5C06E0230EDF5C03E0300E5B
:1000E000DF5C1AE1DF50300A14E0130A0FE0030A64
:1000F0000AE00B0A05E0060AE4E1030EDB80E1D723
:10010000030EDB82DED7030EDB84DBD7030EDB8638
:10011000D8D7030EDB88D5D72A0EDF5C1BE1C0ECF5
:1001200004F00EEC05F010E0030EDB8008680968AF
:10013000130EDBCF0DF0140EDBCF0EF0EAEC0DF05A
:10014000040E06C0DBFF03D0130EF7EC04F0C4EC82
:1001500004F00BD0090EDB6A65EC05F003E0D9EC86
:1001600005F0FAD7090EF7EC04F0030EDBB0DB98CC
:100170002E0EDF5C1BE1C4EC04F02A0EDF5C0BE109
:10018000C0EC04F00EEC05F003E1130E49EC05F0B1
:10019000C4EC04F00BD0090EDB6A65EC05F003E05B
:1001A000D9EC05F0FAD7090E49EC05F0680EDF5CD2
:1001B00007E1C4EC04F0680EDF5C1DE1030E18D00B
:1001C000740EDF5C17E07A0EDF5C14E0480EDF5C33
:1001D00006E0540EDF5C03E05A0EDF5C02E1020E23
:1001E00007D06C0EDF5C03E06A0EDF5C04E1010EF9
:1001F0009CEC05F0C9DBDF506E0A01E17FD31E0ADB
:1002000001E192D1200A01E18FD13F0A01E149D1F8
:100210001A0A01E146D10D0A01E143D1200A01E1A8
:1002200040D13A0A01E13DD1200A01E13AD1260A42
:1002300001E135D10D0A01E132D11A0A01E1D9D02B
:10024000200A4AE0300A1FE0460A0EE0250A01E0D3
:1002500083D3D950F90FE96EFF0EDA20EA6E010E52
:10026000EE5E000EEE5AEE5AAAEC05F0250EE66E92
:1002700095DB03E1211C01E169D3A6EC05F001E265
:100280006BD3DB2A69D3080EDB6A040EDB5001084E
:1002900006E2040EDB046EEC05F0DB508BDB080E8F
:1002A000DB5009E0030EDB50010B05E172DB01E0DE
:1002B0004DD3080EDB6A64DBEFCFDFFF1EEC06F0E8
:1002C00003E1211C01E142D3A6EC05F001E3DB2AA6
:1002D00060DB01E141D33AD3070EDB5002080FE1A6
:1002E000EAEC05F0030EB1EC05F00E0EEECFDBFFED
:1002F0000F0EEECFDBFF100EEECFDBFF20D0F70EA0
:10030000DBCF23F0F80EDBCF24F0020E235E000ECD
:10031000245AF70E23C0DBFFF80E24C0DBFF23C0F6
:10032000E9FF24C0EAFFA1EC05F0226A0E0E20C00E
:10033000DBFF0F0E21C0DBFF100E22C0DBFF0E0E15
:10034000DBCFE6FF0F0EDBCFE6FF100EDBCFE6FFC5
:100350001AEC14F0E552E552E552130E07C0DBFF2C
:10036000140E08C0DBFF060EDB5005E0130EE5ECB3
:1003700005F001E26ADB09EC06F002E2130E37DB5E
:10038000CCEC05F006E0040EE5EC05F002E2050E0B
:100390002EDB030EDBB005D0FCDA01E0D7D2080E6D
:1003A000DB6A090EDB6A0E0EDBCFF6FF0F0EDBCF2A
:1003B000F7FF100EDBCFF8FF0800F550DF6EDF50BF
:1003C00014E00FEC06F011E21EEC06F003E1211C34
:1003D00001E1BCD2BBDB01E3DB2A090EDB2AD950E9
:1003E0000E0FE96E000ECBDBE7D7D3DA01E1B4D212
:1003F000ADD2C6DA110EEECFDBFF120EEDCFDBFF72
:10040000110EDBCFE6FF120EDBCFE6FF0CEC14F093
:10041000E552E552130EF3CFDBFF140EF4CFDBFFF2
:10042000060EDB5004E0130ED0DB01E20EDB09EC1C
:1004300006F002E2130EDBDAAFDB05E0040EC5DBEB
:1004400002E2050ED4DA030EDBB005D0A2DA01E039
:100450007DD2080EDB6A090EDB6A110EDBCFE9FFE5
:10046000120EDBCFEAFFEFCFDFFFDF5014E0D7DB68
:1004700012E2E4DB03E1211C01E168D267DB01E366
:10048000DB2A090EDB2A110EDB2ADBCFE9FF120E75
:10049000E8E3DB2AE6D77DDA01E15ED257D2030E2C
:1004A000DB8E070EDB0410E195DB040E5ADB0A0E2F
:1004B000EECFDBFF0B0EEECFDBFF0C0EEECFDBFF44
:1004C0000D0EEECFDBFF6CD0070EDB5003082CE1E6
:1004D000030EDBAE0DD0B2DA020E76DAEFCF20F0EB
:1004E000216A226A236A20AE39D02168226835D079
:1004F000F70EDBCF21F0F80EDBCF22F0020E215EEB
:10050000000E225AF70E21C0DBFFF80E22C0DBFFDF
:1005100021C0E9FF22C0EAFFEFCF20F00A0E20C081
:10052000DBFF0B0EDB6A38D0070EDB50020809E157
:10053000030EDBAE04D059DB22AE10D00ED055DB5B
:100540000DD0030EDBAE12D079DA020E3DDAF9DA05
:10055000226A236A21AE02D022682368E2DA0C0EF6
:1005600022C0DBFF0D0E23C0DBFF1AD0F70EDBCF5E
:1005700022F0F80EDBCF23F0020E225E000E235A8B
:10058000F70E22C0DBFFF80E23C0DBFF22C0E9FF1D
:1005900023C0EAFFD6DAC5DA0C0EDB6A0D0EDB6A81
:1005A000060EDB5005E1010EF36E050EF3CFDBFF07
:1005B000150EDB6A160EDB6AD950370F206E000E5F
:1005C000DA20216E390E20C0DBFF3A0E21C0DBFF9E
:1005D000380EDB6A080EDB6A0A0EAEDADF50780AE4
:1005E00012E0200A10E0280A0CE0200A0AE03F0A84
:1005F00006E00D0A02E0200A08E1020E05D0080E0E
:1006000003D0080EDF26100E97DA030EDBBE02D0F1
:10061000DB92DB94DB50800B24E08ADAD890030E67
:10062000EB50000A08E6000EEE5C000EEE58000EDD
:10063000EE58000EEE5815E213DA0B680C680D68E0
:100640000E689DEC13F00A0E02C0DBFF0B0E03C018
:10065000DBFF0C0E04C0DBFF0D0E05C0DBFF2D0E13
:1006600008D0030EDBA202D02B0E03D0DBA408D0EF
:10067000200EF36E170EF3CFDBFF150EDB2A02D030
:10068000170EDB6A050EDB5003E1B7D901E189D013
:100690005E0E206E2B0E216E000E226E070EDBCF3B
:1006A00023F0246A256A266A23C00BF024C00CF0CC
:1006B00025C00DF026C00EF0D3D9B0EC14F02050B8
:1006C0000224F36E21500320F46E22500420F86EB1
:1006D000F4CFF7FFF3CFF6FF0800090EF5CFDBFFED
:1006E000580EDF5C0FE1610EF36E090E7BD90AE351
:1006F000200E206E090EDBCFE7FF2050E75E090ECB
:10070000E7CFDBFF070EDBCF20F0216A226A236AE6
:100710000FDA20C00BF021C00CF022C00DF023C076
:100720000EF0EECF06F0EECF07F0EECF08F0EFCFF1
:1007300009F0B0EC14F009C0EDFF08C0EDFF07C0F0
:10074000EDFF06C0EFFF390EDBCFE9FFDB063A0E07
:10075000DBCFEAFF01E2DB06090EDBCFEFFF150E70
:10076000DB2A4BD995E1030EDBA61DD06F0EDF5CB3
:1007700006E1C1D918E3150EDB285BDA14D0780E38
:10078000DF5C09E0580EDF5C06E0620EDF5C03E030
:10079000420EDF5C08E1020EF36E160EF3CFDBFFB4
:1007A00002D0150EDB6A030EDB50100B0EE0040EB8
:1007B000DBCF20F0050EDB50D880205406E2060E79
:1007C000DB5003E1040EDB5034DA95D90AE2050E62
:1007D000DBCFE7FF150EDB50E75E050EE7CFDBFF53
:1007E00002D0050EDB6A040EDBCF20F0160E45D9D1
:1007F000D880205414E2160EDBCFE6FF150EDBCFB7
:10080000E6FF040EDBCFE6FF050EDB50E552E75CAA
:10081000E552D880E754E552D880E7545FD9030EFB
:10082000DB50010B0BE1080EDB5008E0B2D801E011
:100830008DD0080EDB50BED8080EDB6A170EDB50D9
:1008400007E088D9170EF1D903E1211C01E17ED020
:10085000160EDB5016E07ED9300EE66E9FD802E110
:10086000211C74E077D9DFCFE6FF5BEC13F0E55293
:10087000E552E552F4CF21F00001F31C02E1211C06
:1008800065E0050EDBCF20F0160EDB50D88020543B
:1008900009E2050EDBCFE7FF160EDB50E75E050E23
:1008A000E7CFDBFF300EE66E050ECBD94FE1390EF8
:1008B000DB2ADBCFE9FF3A0E01E3DB2ADBCFEAFFDD
:1008C000090EEFCFDBFFDB500EE044D9090EADD9A6
:1008D00002E1211C3BE0390EDB2ADBCFE9FF3A0EB7
:1008E000EDE3DB2AEBD755D831E1160EDBCFE6FF7F
:1008F000080EC3D8E552E7245DD82ED0070EDB5092
:10090000030A1CE0010A14E0030A07E07BD9DBCFED
:10091000EEFF020EDBCFEDFF1FD0F5D8256A23AE28
:1009200002D0246825682CD8BCD825C0EEFF14D08E
:10093000EAD823BE246824D8B4D80ED063D9DBCF3C
:10094000EFFF0AD07BD905E1211C03E1F368F468CD
:1009500010D0FCD801E3DB2A79D94BEF00F0010E6F
:10096000DBCF20F0020EDBCF21F020C0F3FF21C04F
:10097000F4FF3B0EE15C02E2E16AE552E16ECBD0AE
:1009800029D9020EB1EF05F061D90800F550DF6EEC
:100990001200200EE66E080E21EF06F05BEC13F05D
:1009A000E552E552E552F3CF20F0F4CF21F00001FB
:1009B000F31C1200206E216AD950010F4DD920502E
:1009C000EE262150ED221200245E000E255AF70E6D
:1009D00024C0DBFFF80E25C0DBFF24C0E9FF25C0E3
:1009E000EAFF1200DBCFF4FFF350F45C1200DB509F
:1009F000E76E040EE7CFDBFF12000A0EDBCF20F01C
:100A00000B0EDBCF21F00C0EDBCF22F00D0EDBCF77
:100A100023F020502110221023101200130EEECFCD
:100A2000DBFF140EEDCFDBFF130EDBCF20F0140E37
:100A3000DBCF21F00001800E21141200F70EDBCF76
:100A400024F0F80EDBCF25F01200050EDB50E66E29
:100A5000D950130F01D9E552E750EE6EED6A12003E
:100A60000A0EDBCF06F00B0EDBCF07F00C0EDBCF50
:100A700008F00D0EDBCF09F01200DBCFE6FF150EFC
:100A8000DBCFE6FF050EDB50E552E724E552E72415
:100A90001200DB50CED8010EF36E060EF3CFDBFF53
:100AA0001200EE50EFCFEAFFE96E22C0EEFF23C046
:100AB000EEFF24C0EEFF1200D9CFE6FFDACFE6FF4B
:100AC000E1CFD9FFE2CFDAFF1200DFCFE6FFE66A1F
:100AD0004BEC15F0E552E552F3501200E76E080EAC
:100AE000E7CFDBFF1200EECF20F0EECF21F0EFCF0B
:100AF00022F0236A1200050EDBCF20F0150EDB502A
:100B0000D88020541200010EDBCF22F0020EDBCF82
:100B100023F0246A1200E552E5CFDAFFE7CFD9FFD0
:100B200012000A0E20C0DBFF0B0E21C0DBFF1200FB
:100B3000D9500A0F2CEF06F0F36E070EF3CFDBFF50
:100B40001200EECF20F0EFCF21F01200010EDB2AD1
:100B5000020E1200FC0EDBCFE6FFFD0EDBCFE6FF40
:100B60001200205E000E215AF70E20C0DBFFF80EA7
:100B700021C0DBFF20C0E9FF21C0EAFF1200DA201C
:100B8000EA6EEF2AEECFF6FF000EEF22EECFF7FF70
:100B9000EF22EECFF8FF1200040EDBCFE6FF130EBC
:100BA000DB50E552E75C9ADFDB5004DF060EDB50DA
:100BB0001200090EDB500A0DF350DF24D00FE76E50
:100BC000090EE7CFDBFFC4EF04F0DB50F36E050E38
:100BD000F2EF04F0F70EDBCF20F0F80EDBCF21F0C0
:100BE0001200DFCFE6FFCEEF04F028DF030EECDECD
:100BF00073EF05F020EC00F0E552E552E552E552C6
:100C000000091200BDDEEE50EFCFEAFFE96E010EE3
:100C10001200130EDB50F36E040EF2EF04F0040E1C
:100C2000DB50F36E090EF2EF04F0DBCFE6FFCEEF00
:100C300004F0E76E050EE7CFDBFF12008BDFF1EF6C
:100C400005F0DBCFE6FF86DFFAEF05F0D950F90FAC
:100C5000E96EFF0EBFEF05F0E96E000EDA20EA6ED6
:020C6000120080
:0E0C620014D80201FE51040A0EE0070A0AE04F
:100C7000010A06E0030A02E0010AF4E048D8F2D7CC
:100C800014D9F0D764D9EED794D9ECD7060EC16E3B
:100C90008A6A93688B6A946AFE0EE66E8BEC14F097
:100CA000E552F086F090F28E65EC14F017EC0EF041
:100CB000ECEC0FF0D38E870EE66ED4EC14F0E55218
:100CC000F28AF294F28ED08ED7683C0ED66E21EC6A
:100CD0000BF0B50E206E220E96EC0BF0D7C2E6FF9D
:100CE000D8C2E6FFAFEC0BF045EC0BF0D1C220F020
:100CF000D2C221F0226AC2EC0BF022C0E6FFC2ECA5
:100D00000BF0AFEC0BF00201010EFE6F12008294AB
:100D1000829020C10CF021C10DF022C10EF023C140
:100D20000FF048C107F049C108F04AC109F04BC1B2
:100D30000AF0F6EC0CF0010A5EE000C128F101C1F6
:100D400029F102C12AF103C12BF104C12CF105C123
:100D50002DF106C12EF107C12FF108C130F109C1F3
:100D600031F10AC132F10BC133F10CC134F10DC1C3
:100D700035F10EC136F10FC137F110C138F111C193
:100D800039F112C13AF113C13BF114C13CF115C163
:100D90003DF116C13EF117C13FF118C140F119C133
:100DA00041F11AC142F11BC143F11CC144F11DC103
:100DB00045F11EC146F11FC147F120C148F121C1D3
:100DC00049F122C14AF123C14BF124C14CF125C1A3
:100DD0004DF126C14EF127C14FF16BEC0BF0B20E75
:100DE000206E220EE8EC0BF09A0E246E220ED9EC47
:100DF0000BF0F9EC0BF081B808D078EC0BF0B6D81A
:100E0000CCEC0BF0500EB6EC0BF081BC0FD078ECB4
:100E10000BF028EC0BF00BEC0CF06FEC0BF0CCECC7
:100E20000BF030EC0BF0500EB6EC0BF081BE27D07F
:100E300028EC0BF0FDEC0CF0010A06E08274140EB5
:100E4000B6EC0BF0827419D09EEC0BF00AEC0CF0AF
:100E50006FEC0BF007C0D3F208C0D4F209C0D5F292
:100E60000AC0D6F207C0D9F208C0DAF209C0DBF234
:100E70000AC0DCF2500EB6EC0BF0CCEC0BF081BAF1
:100E800013D0A0EC10F05A0E206E220EBBEC0BF02B
:100E90004C0E206E220EC7DB52EC0BF0F40EB6ECBB
:100EA0000BF0020ECFEC0BF0120078EC0BF081B8D7
:100EB00002D07CEC0BF081BC49D0030EE2DBA0EC4D
:100EC00010F0230E206E220EC7EC0BF0F0DB08C0F2
:100ED00020F009C021F0E3EC0BF004C020F005C0C5
:100EE00021F004C0E6FF05C0E6FFE1DB8BEC0BF070
:100EF000E8DB08C024F009C025F0E3EC0BF004C0E7
:100F000024F005C025F004C0E6FF05C0E6FFD9DBEC
:100F100008C026F009C027F0E3EC0BF008C026F06B
:100F200009C027F0FFEC0BF00D0E286E220E296E83
:100F30002A6A28C0E6FFE66E2AC0E6FF04EC0CF041
:100F40002B6E0D0EE15E2B50020E60DB120081B89D
:100F500002D0CEDBD1DB81BC08D0CADB020E91DB34
:100F6000FB0E206E210EC7EC0BF01200020188511F
:100F7000030A0DE0010A08E0030A04E0010A09E19E
:100F8000010E03D0020E01D0030E886F03D0886BD0
:100F900001D0886B88C220F0216A20BE216820C061
:100FA000E6FF21C0E6FF72EC0EF0E552E55230EFAD
:100FB0000BF0010EF4DB9CDBA0EC10F0EB0E206ECE
:100FC000210ED9DB0201D151CB190BE1D251CC1941
:100FD00008E1D7C2E6FFD8C2E6FFE00E206E210E80
:100FE00004D0D0DBD60E206E210E1DDB070EE15E95
:100FF0002350020E0BDBAADB0A0EE66E99EC15F00D
:10100000E5522EDBD1C2CBF2D2C2CCF220C1CDF25E
:1010100021C1CEF222C1CFF223C1D0F221EF0BF0D9
:10102000DACFE4FFE2CFDAFFE9CFE4FFEACFE4FF73
:10103000F6CFE4FFF7CFE4FFF5CFE4FFF3CFE4FF13
:10104000F4CFE4FFFACFE4FF00EE00F0140EE80462
:1010500003E3EECFE4FFFBD700EE20F00C0EE80434
:1010600003E3EECFE4FFFBD7E652F2A40AD2D7683F
:101070003C0ED66E0201F12B000EF223F294F1C267
:1010800014F0F2C215F0640E0D6E0E6A14C008F072
:1010900015C009F0A1EC0CF004C014F005C015F067
:1010A0001450151039E10201F16BF26B0201842B2F
:1010B000000E85230201853504E284513C08000EB0
:1010C000855527E202018651871122E1C70E146E71
:1010D000210E156E166A14C0E6FF15C0E6FF16C095
:1010E000E6FF000EE66E020EE66E71EC12F0176E71
:1010F000050EE15E1750000EE66E020EE66E79EC0C
:1011000014F0E552E552010E0201866F876B030071
:1011100003D00201866B876B020E0201FE5D01E0C7
:10112000B0D1F1C214F0F2C215F0640E0D6E0E6A69
:1011300014C008F015C009F0A1EC0CF004C014F0C4
:1011400005C015F01450151001E006D1D9C207F002
:10115000DAC208F0DBC209F0DCC20AF0C7EC0CF01E
:1011600008C014F009C015F014C0E6FF15C0E6FF72
:10117000D3C207F0D4C208F0D5C209F0D6C20AF033
:10118000C7EC0CF008C016F009C017F016C0E6FF57
:1011900017C0E6FFBE0E186E210E196E1A6A18C02F
:1011A000E6FF19C0E6FF1AC0E6FF000EE66E020E6B
:1011B000E66E71EC12F01B6E090EE15E1B50000E24
:1011C000E66E020EE66E79EC14F0E552E552D9C2F5
:1011D00007F0DAC208F0DBC209F0DCC20AF0C7ECA3
:1011E0000CF008C014F009C015F03C0E0D6E0E6A2C
:1011F00014C008F015C009F0A1EC0CF004C014F004
:1012000005C015F014C0E6FF15C0E6FFD9C207F00F
:10121000DAC208F0DBC209F0DCC20AF0C7EC0CF05D
:1012200008C016F009C017F03C0E0D6E0E6A16C00D
:1012300008F017C009F0A1EC0CF008C016F009C0C6
:1012400017F016C0E6FF17C0E6FFD3C207F0D4C2FE
:1012500008F0D5C209F0D6C20AF0C7EC0CF008C0FD
:1012600018F009C019F03C0E0D6E0E6A18C008F097
:1012700019C009F0A1EC0CF004C018F005C019F079
:1012800018C0E6FF19C0E6FFD3C207F0D4C208F0C9
:10129000D5C209F0D6C20AF0C7EC0CF008C01AF0AB
:1012A00009C01BF03C0E0D6E0E6A1AC008F01BC080
:1012B00009F0A1EC0CF008C01AF009C01BF01AC02C
:1012C000E6FF1BC0E6FF0D0E1C6E220E1D6E1E6A91
:1012D0001CC0E6FF1DC0E6FF1EC0E6FF000EE66E66
:1012E000020EE66E71EC12F01F6E0D0EE15E1F50E5
:1012F000020EE66EE66A000EE66E020EE66EFCEC8C
:101300000FF0E552E552E552E5520C6A0D6AA00E67
:101310000E6E400E0F6ED3C207F0D4C208F0D5C2D5
:1013200009F0D6C20AF006EC0DF0010A02E182745F
:1013300013D00C6A0D6AA00E0E6E400E0F6ED9C24D
:1013400007F0DAC208F0DBC209F0DCC20AF006ECF2
:101350000DF0010A01E182740201D1510201CB19A1
:1013600004E10201D2510201CC1946E10A0E0C6ED1
:10137000D70E0D6E230E0E6E3C0E0F6ED3C207F00D
:10138000D4C208F0D5C209F0D6C20AF006EC0DF0BE
:10139000010A0BE10201D36BD46BD56BD66B040E43
:1013A000E66EA4EC15F0E55226D00A0E0C6ED70EB0
:1013B0000D6E230E0E6E3C0E0F6ED3C207F0D4C21C
:1013C00008F0D5C209F0D6C20AF00AEC0CF007C04A
:1013D000D3F208C0D4F209C0D5F20AC0D6F2D1C205
:1013E000CBF2D2C2CCF2D3C2CDF2D4C2CEF2D5C2AD
:1013F000CFF2D6C2D0F245D00A0E0C6ED70E0D6ECB
:10140000230E0E6E3C0E0F6ED9C207F0DAC208F042
:10141000DBC209F0DCC20AF006EC0DF0010A0BE1B8
:101420000201D96BDA6BDB6BDC6B040EE66EA4ECAD
:1014300015F0E55226D00A0E0C6ED70E0D6E230E57
:101440000E6E3C0E0F6ED9C207F0DAC208F0DBC296
:1014500009F0DCC20AF00AEC0CF007C0D9F208C0AF
:10146000DAF209C0DBF20AC0DCF2D7C2CBF2D8C292
:10147000CCF2D9C2CDF2DAC2CEF2DBC2CFF2DCC2FC
:10148000D0F2F0A08BD0F096020E0201FE5D01E0DA
:1014900083D00201D1510201CB1904E10201D251E2
:1014A0000201CC193DE1828024C10CF025C10DF070
:1014B00026C10EF027C10FF0D9C207F0DAC208F03A
:1014C000DBC209F0DCC20AF00BEC0CF007C0D9F269
:1014D00008C0DAF209C0DBF20AC0DCF2D7C2CBF2F4
:1014E000D8C2CCF2D9C2CDF2DAC2CEF2DBC2CFF290
:1014F000DCC2D0F2B50E146E220E156E166A14C040
:10150000E6FF15C0E6FF16C0E6FFCBC2E6FFCCC281
:10151000E6FF71EC12F0176E050EE15E17503CD03D
:10152000829024C10CF025C10DF026C10EF027C118
:101530000FF0D3C207F0D4C208F0D5C209F0D6C26A
:101540000AF00BEC0CF007C0D3F208C0D4F209C0CB
:10155000D5F20AC0D6F2D1C2CBF2D2C2CCF2D3C2FB
:10156000CDF2D4C2CEF2D5C2CFF2D6C2D0F2BB0EEB
:10157000146E220E156E166A14C0E6FF15C0E6FF43
:1015800016C0E6FFCBC2E6FFCCC2E6FF71EC12F05C
:10159000176E050EE15E1750F086F090E55200EEF2
:1015A0002BF00C0EE80403E3E5CFEDFFFBD700EED4
:1015B00013F0140EE80403E3E5CFEDFFFBD7E5CF0E
:1015C000FAFFE5CFF4FFE5CFF3FFE5CFF5FFE5CF79
:1015D000F7FFE5CFF6FFE5CFEAFFE5CFE9FFE5CF7F
:1015E000DAFF110024C107F025C108F026C109F077
:1015F00027C10AF0C7EC0CF008C020F009C021F0A8
:10160000FED8EED8C7EC0CF08BEF0BF0E66EE66A76
:10161000000EE66E020EE66EFCEC0FF0E552E552AF
:10162000E552E552120082D8EFD8236E1200BCD8E2
:10163000780E246E220EBDD80B0EE15E2750A6EF69
:101640000BF0BB0E206E220E71D89CD8AFEF0BF0C2
:101650006B0E206E220E6AD8A7D881D89EEF0BF0B1
:1016600020C1D3F221C1D4F222C1D5F223C1D6F2D6
:1016700020C1D9F221C1DAF222C1DBF223C1DCF2AE
:1016800012008DD8500EB6EF0BF0D1C2CBF2D2C201
:10169000CCF2D3C2CDF2D4C2CEF2D5C2CFF2D6C2F2
:1016A000D0F21200050EE15E2350A6EF0BF0D9C276
:1016B00007F0DAC208F0DBC209F0DCC20AF0C7EFBB
:1016C0000CF0D3C207F0D4C208F0D5C209F0D6C2DC
:1016D0000AF0C7EF0CF0A0EC10F0D4EF0BF007C04D
:1016E00020F108C021F109C022F10AC023F1120043
:1016F0000201846B856B1200010EC3DFECDF440E28
:10170000206E220E65D8300E246E220E52D871D86B
:10171000BCDF21EF0BF008C022F009C023F053D842
:1017200008C022F009C023F0FFEF0BF0216E226AFF
:1017300020C0E6FFE66E22C0E6FF12000C6A0D6ACA
:10174000700E0E6E420E0F6EF0EF0BF0000EE66E96
:10175000020EE66E79EC14F0E552E552120071ECDF
:1017600012F0236E050EE15E23501200E66EF0ECDF
:1017700014F0E552120057DF050EE15E2350010E12
:1017800006EF0BF0D1C2E6FFD2C2E6FF12004BDF3C
:1017900089DF010E06EF0BF025DF17EF0BF0E66E89
:1017A000A4EC15F0E5521200000EE66E010EE66E96
:1017B0001200256E266A24C0E6FFE66E26C0E6FF0C
:1017C00023D8276E12003C0E0D6E0E6AA1EF0CF0AE
:1017D0002ADF070EE15E2350010E18DFF2EF0AF058
:1017E00020C107F021C108F022C109F023C10AF08D
:1017F0001200090EE15E2750020E06EF0BF008C042
:10180000E6FF09C0E6FF1200000EE66E020EE66E6D
:0418100071EF12F072
:0C1814000F7E016ABCEC0DF0D4EC0DF06E
:1018200001B664EF0DF001A20AD001AA03D001BEF7
:1018300064EF0DF001A470EF0DF06DEF0DF001AA53
:1018400005D001AC70EF0DF06DEF0DF001A00AD0E6
:1018500001A808D001BE04D001A402D079EF0DF098
:101860007DEF0DF0126A056A0F500A5C116E10E3ED
:1018700007C013F008C002F009C003F00AC010F05E
:101880000CC007F00DC008F00EC009F0013A09D0F5
:101890000CC013F00DC002F00EC003F00FC010F02A
:1018A000116C019E01BC018E10C004F001B0ACEFC0
:1018B0000DF01A0E1160ACEF0DF0046A0A6A01A473
:1018C00008D0076C081E091E0A1EE86A08220922B1
:1018D0000A2201AC08D0136C021E031E041EE86A23
:1018E000022203220422066A115207E00A34093256
:1018F000083207320632112EF9D707501326085046
:101900000222095003220A50042206C012F0019E4E
:1019100004AE0BD0126C131E021E031E041EE86AD6
:101920001322022203220422018E04A006D0D880B2
:101930000332023213321232102A10C004F080EF48
:101940000DF0006A0EAEAAEF0CF00D6C0E1EE86AE8
:101950000E22001E09AEB2EF0CF0086C091EE86AF8
:101960000922001E35EC15F009BEC2EF0CF000AEE6
:10197000000C086C091EE86A0922046C051EE86A5E
:101980000522000C00BEB9EF0CF00188FF0C016AC3
:10199000BCEC0DF001B6D1EF0CF001A20ED001B4F9
:1019A00005D07F0E096EFF0E086E1FD0800E096EE7
:1019B000086A1BD0096A086A18D001B0FBD78F0EDD
:1019C0000A60EDD77E0E0A64F5D78E0E0A5C05E03C
:1019D000D890093208320A2AF8D701A406D0086C38
:1019E000091EE86A092209AEE5D712000FEC0DF0D6
:1019F00001B6000C01B0010C000C0FEC0DF001B6AB
:101A0000000C01B0000C01B4000C010C0FEC0DF047
:101A100001B6000C01B0000C01A4000C010C016A1D
:101A2000BCEC0DF0D4EC0DF001B6120001AE08D004
:101A300001A004D001A802D0018012000190120080
:101A40000F500A5C0BE10E50095C08E10D50085C78
:101A500005E10C50075C02E101801200D8A002D021
:101A6000018E10D00A500FC00AF00F6E09500EC040
:101A700009F00E6E08500DC008F00D6E07500CC036
:101A800007F00C6E0F500A5C10E0FF0F09E00190A8
:101A900001B403D001AE0184120001AE0194120022
:101AA0000F2AD8900E320D320C320C50075E0D50BA
:101AB000085A0E50095A09BEEAD7D8900736083698
:101AC00009360A2EF8D7C8D77F0E0A6EFF0E096EA8
:101AD000086E076E12007F0E01BEFF0E0A6E02D066
:101AE0007F0E0A6E800E096E086A076AF3D701AE90
:101AF00004D0800E0A6E096AF7D70A6A096AF4D719
:101B00000350021013101210F8E005BEF0D703BE08
:101B10000CD004500510EBE0D89012361336023684
:101B200003360406D8A00506F2D70550D4E10428F0
:101B3000D2E012AE11D07F0E121402E113A00CD02D
:101B4000132AE86A0222032207E3D8800332023212
:101B50001332042A0428BFE00450C9E013C007F080
:101B600002C008F00334096E04300A6E09320A9E7E
:101B700001BE0A8E6AEF0DF009360A3602E30184CF
:101B8000017E06E101800A6A096A086A076A120092
:101B90000A2803E0D88009321200D890093202E105
:101BA00001821200018612000E360F3602E3018C0C
:101BB000017E06E101880F6A0E6A0D6A0C6A120046
:101BC0000F2803E0D8800E321200D8900E32EAE1DE
:101BD000018A120009C013F008C012F008500D026B
:101BE000F4CF07F0F3CF06F009500E02F4CF09F05E
:101BF000F3CF08F00D02F3500726F4500822E86AEC
:101C0000092212500E02F3500726F4500822E86A07
:101C100009220EAE10EF0EF01250085E1350095A52
:0E1C200013AE000C0D50085E0E50095A000C59
:021C2E00EF0EB7
:101C3000206E220EC1D9500EE66E010EC5D90101EB
:101C4000706B716B960E726F430E736F746B756B66
:101C5000766B776BE90E206E220EAED9780EE66EAB
:101C6000010EB2D90101986B800E996FBB0E9A6F6D
:101C7000440E9B6F9C6B9D6B9E6B9F6BE20E206E68
:101C8000220E9AD9A00EE66E010E9ED90101C06BFC
:101C9000C16B340EC26F430EC36FC46BC56BC66B92
:101CA000400EC76FDB0E206E220E86D9C80EE66E80
:101CB000010E8AD90101E86B800EE96FBB0EEA6F55
:101CC000440EEB6FEC6BED6B200EEE6F410EEF6F81
:101CD00022D9D40E206E220E6FD9000EE66E010EB0
:101CE000E4EF0FF0D9CFE6FFE1CFD9FFFD0EDBCF58
:101CF00008F0FE0EDBCF09F0030E081801E10950D1
:101D000001E1B3D0020E081801E109505DE0010EB7
:101D1000081801E1095007E0085001E0F7D0095028
:101D200001E0F4D0F3D078C100F179C101F17AC1BA
:101D300002F17BC103F17CC104F17DC105F17EC1DB
:101D400006F17FC107F180C108F181C109F182C1AB
:101D50000AF183C10BF184C10CF185C10DF186C17B
:101D60000EF187C10FF188C110F189C111F18AC14B
:101D700012F18BC113F18CC114F18DC115F18EC11B
:101D800016F18FC117F190C118F191C119F192C1EB
:101D90001AF193C11BF194C11CF195C11DF196C1BB
:101DA0001EF197C11FF198C120F199C121F19AC18B
:101DB00022F19BC123F19CC124F19DC125F19EC15B
:101DC00026F19FC127F1A3D0A0C100F1A1C101F16B
:101DD000A2C102F1A3C103F1A4C104F1A5C105F19F
:101DE000A6C106F1A7C107F1A8C108F1A9C109F16F
:101DF000AAC10AF1ABC10BF1ACC10CF1ADC10DF13F
:101E0000AEC10EF1AFC10FF1B0C110F1B1C111F10E
:101E1000B2C112F1B3C113F1B4C114F1B5C115F1DE
:101E2000B6C116F1B7C117F1B8C118F1B9C119F1AE
:101E3000BAC11AF1BBC11BF1BCC11CF1BDC11DF17E
:101E4000BEC11EF1BFC11FF1C0C120F1C1C121F14E
:101E5000C2C122F1C3C123F1C4C124F1C5C125F11E
:101E6000C6C126F1C7C127F152D0C8C100F1C9C10E
:101E700001F1CAC102F1CBC103F1CCC104F1CDC162
:101E800005F1CEC106F1CFC107F1D0C108F1D1C132
:101E900009F1D2C10AF1D3C10BF1D4C10CF1D5C102
:101EA0000DF1D6C10EF1D7C10FF1D8C110F1D9C1D2
:101EB00011F1DAC112F1DBC113F1DCC114F1DDC1A2
:101EC00015F1DEC116F1DFC117F1E0C118F1E1C172
:101ED00019F1E2C11AF1E3C11BF1E4C11CF1E5C142
:101EE0001DF1E6C11EF1E7C11FF1E8C120F1E9C112
:101EF00021F1EAC122F1EBC123F1ECC124F1EDC1E2
:101F000025F1EEC126F1EFC127F101D004D8E55249
:101F1000E7CFD9FF120050C100F151C101F152C108
:101F200002F153C103F154C104F155C105F156C189
:101F300006F157C107F158C108F159C109F15AC159
:101F40000AF15BC10BF15CC10CF15DC10DF15EC129
:101F50000EF15FC10FF160C110F161C111F162C1F9
:101F600012F163C113F164C114F165C115F166C1C9
:101F700016F167C117F168C118F169C119F16AC199
:101F80001AF16BC11BF16CC11CF16DC11DF16EC169
:101F90001EF16FC11FF170C120F171C121F172C139
:101FA00022F173C123F174C124F175C125F176C109
:101FB00026F177C127F11200216E226A20C0E6FFC8
:101FC000E66E22C0E6FF1200E66E71EC12F0236EA0
:081FD000050EE15E2350120032
:081FD800956A8C6A839C8398D2
:101FE000839A020EB0D8280EAED80C0EACD8010ED3
:101FF000AAD8020EA3EF10F0D9CFE6FFE1CFD9FFA8
:10200000060EE126DE6ADD6AFD0EDBCFE6FFFE0E80
:10201000DBCFE6FF0CEC14F0E552E552F3CFC9F24A
:10202000F4CFCAF2D950FB0FE96EFF0EDA20EA6E48
:10203000010EEE182BE1ED5029E1800E84D8DE6A06
:10204000DD6AA9D8E8AE02D0CA3504D0C951205CF7
:10205000CA51215844E28BD820BE2168020E20C00C
:10206000DBFF030E21C0DBFF020EDBCF20F0030EEF
:10207000DBCF21F0040E97D8FEE189D8020EDBCF2A
:1020800020F0030E66D8DDE3DB2ADBD7C00E5BD879
:10209000DE6ADD6A80D8E8AE02D0CA3504D0C95104
:1020A000205CCA5121581BE262D820BE2168040E70
:1020B00020C0DBFF050E21C0DBFF040EDBCF20F0CC
:1020C000050EDBCF21F0040E6ED8FEE160D8040EC1
:1020D000DBCF20F0050E3DD8DDE3DB2ADBD7060E93
:1020E000E15C02E2E16AE552E16EE552E7CFD9FF39
:1020F0001200D9CFE6FFE1CFD9FFFD0EDBCF20F0F4
:10210000FE0EDBCF21F0040E4ED8FEE120508C6E87
:10211000838C839C0F0EE76EFD0EDBCF20F0FE0E4E
:10212000E7502016216A20508C6E838C839C0A0E07
:10213000E66E5DEC15F0E552E552E7CFD9FF1200EF
:10214000010EA3EF10F0E66EE66AD3DFE552E5522A
:102150001200DBCF21F0E7502016216A29D8010EAA
:10216000E66E5DEC15F0E552DF2A010E1200FD0E61
:10217000DBCF22F0FE0EDBCF23F0DE502224E96E0F
:10218000DD502320EA6EEFCF20F0216A120010D834
:102190000F0EE76E1200DECF20F0DDCF21F002013E
:1021A0002150CA191200D89021322032E8041200BE
:0E21B00020508C6E8388838C839C8398120051
:0221BE005725A3
:1021C000642C4225643B00476F696E6720746F2062
:1021D000536C6565700057696E6E65723A257300C1
:1021E00057696E6E65723A257320004D617463689D
:1021F000204F7665722E20474773004D61746368E7
:1022000020696E2050726F677265737300572530B6
:1022100032643A253032642042253032643A253027
:102220003264004D617463682050617573656400A9
:102230004475723A25646D696E2C426F6E3A25645E
:10224000736563004D6F64653A2573004D61746377
:10225000682053746172746564004D617463682012
:1022600053746172742E474C484600437573746F03
:102270006D204D61746368007B22746F223A2225C1
:1022800073222C22647572223A222564222C226247
:102290006F6E223A222564227D004475723A2564CD
:1022A0006D696E2C426F6E3A256473202020206584
:1022B0006300257300424C41434B00574849544545
:1022C0000000496E697469616C6973656400484512
:1022D0004C4C4F00424C49545A0A00465241504916
:1022E000440046424C49545A00524150494400422D
:0B22F0004C49545A0048454C4C4F002C
:0422FC00D9CFE6FF51
:10230000DACFE6FFFA0EE3CFD9FFFB0EE3CFDAFF19
:10231000FD0EE35209E72D0EDE6EFC0EE31EE32AEE
:10232000FD0ED8B4E306E31EE652E652E652FD0E79
:10233000E124E76EFF0EE220E46EE652F70EE3CFF3
:10234000E6FFF70EE3CFE6FFEEEC11F0F90EE12425
:10235000E96EFF0EE220EA6EDEEC11F00AE1DBEC42
:1023600011F009E1DEEC11F008E1DBEC11F007E11E
:1023700008D0E9EC11F0E4EC11F0E9EC11F0E4EC38
:1023800011F0E9EC11F0DE6AF90EE126FF0EE2220F
:10239000FF0EE3CFDAFFE552FF0EE3CFD9FFE552A0
:1023A000FC0EE124E96EFF0EE220EA6EEECFF3FFB1
:1023B000EFCFF4FF1200EF380F0B1200EF500F0BAE
:1023C00002E1EE52D8841200EF380F0B300FDE6EB0
:1023D0001200EE500F0B300FDE6E1200FC0EE3CF3A
:1023E000E9FFFD0EE3CFEAFF100EE66EEE6AEE6A3D
:1023F000EF6AD890FD0EE336FE0EE336ED36ED368D
:10240000EF36FF0EE30609E00FEC12F0EE520FEC90
:1024100012F0EE520FEC12F0EDD7E56E1200030E43
:10242000EF24E8B6EF6E300EEF24E8BEEF6E000C3E
:102430009268060EE66E040EE66EAF0EE66ED5EC02
:1024400013F0E552E552E552870EE66E1EEC15F0EC
:10245000E552B8EC15F00009FCE11200BDEC15F0F6
:10246000C350226E236A0001E850D45D206E2350D1
:10247000D559216EE83404E220500208000E2154A0
:1024800011E3C350266E276AE850D45D246E2750AE
:10249000D559256ED880E85004E7FE0E245CFF0E67
:1024A00025581EE2C350D46FD56BC00EE66E000EE9
:1024B000E66ED4C0E6FFD5C0E6FF7EEC11F0E55233
:1024C000E552E552E552C00EE66E000EE66E79EC7E
:1024D00014F0E552E552640EE66EF0EC14F0E552AD
:0224E0001200E8
:0E24E200D9CFE6FFDACFE6FFE1CFD9FFE2CF98
:1024F000DAFFE652E652E652E652D950F90F206E64
:10250000FF0EDA20216E020E20C0DBFF030E21C079
:10251000DBFF020EDBCFE6FF030EDBCFE6FFF90E9B
:10252000DBCFE6FFFA0EDBCFE6FFFB0EDBCFE6FFED
:10253000D950FC0FE66EFF0EDA20E66E36EC00F0A6
:10254000206E070EE15C02E2E16AE552E16E205086
:10255000F3CFDEFFF4CFDDFFFC0EDBCFE9FFFD0E96
:10256000DBCFEAFFEF6ADECF20F0DDCF21F020C025
:10257000F3FF21C0F4FF040EE15C02E2E16AE552E0
:0E258000E16EE552E5CFDAFFE7CFD9FF12009A
:02258E000E0E2F
:10259000F66E000EF76E000EF86E02010900F5509F
:1025A000F86F0900F550F96F03E1F86701D03DD0ED
:1025B0000900F550F36F0900F550F46F0900F5506C
:1025C000F56F09000900F550E96E0900F550EA6E53
:1025D000090009000900F550F66F0900F550F76F82
:1025E00009000900F6CFFAF2F7CFFBF2F8CFFCF2C0
:1025F000F3C2F6FFF4C2F7FFF5C2F8FF0201F6538B
:1026000002E1F75307E00900F550EE6EF607F8E235
:10261000F707F9D7FAC2F6FFFBC2F7FFFCC2F8FFD3
:0C2620000201F807000EF95BBFD71200A2
:04262C00D9CFE6FF1D
:10263000DACFE6FFE1CFD9FFE2CFDAFFAC6AAB6ACF
:10264000FD0EDBB0AC88DBA202D0AC8CAB8CDBB473
:10265000AC8EDBA602D0AB8801D0AB8ADBB8AC84F1
:102660009E98DBBAAB86DBAC02D09D8A01D09D9AE6
:102670009E9ADBAE02D09D8801D09D98FB0EDB5068
:10268000AF6EFB0EFC0EDBCF21F021C020F0216AE3
:102690002050B06EAC8AAB8E949C948EAC50100BD4
:1026A00004E0AC50800B01E1948CE552E5CFDAFFF9
:0626B000E7CFD9FF120084
:0A26B600D9CFE6FFDACFE6FFE1CF4F
:1026C000D9FFE2CFDAFFFB0EDBCF20F0FC0EDBCF31
:1026D00021F00001800E21141AE1FB0EDBCFE9FF8F
:1026E000FC0EDBCFEAFFEECFF3FFEDCFF4FFEE2AD7
:1026F000000EEF22F3CFE9FFF4CFEAFFFD0EDBCFB0
:10270000EFFFEF50216AF36E21C0F4FF10D0FB0EF3
:10271000DB50FE0806E1FD0EDBCFE6FF8BEC15F08B
:1027200005D0FD0EDBCFE6FF03EC00F0E552E552ED
:0A273000E5CFDAFFE7CFD9FF120072
:06273A0006500B02F3CF74
:1027400002F0F4CF03F00C02F3500326000EF42045
:10275000046E06500D02F3500426000EF420056EA0
:1027600006500E02F350052607500B02F3500326C5
:10277000F4500422000E052207500C02F3500426E8
:10278000F450052207500D02F350052608500B02A5
:10279000F3500426F450052208500C02F35005268D
:0A27A00009500B02F3500526120049
:0627AA00D9CFE6FFDACFF3
:1027B000E6FFE1CFD9FFE2CFDAFFC26AC06AFC0EC2
:1027C000DB407F0B3C0BC26EFC0EDB38F00B300B9A
:1027D000206EFB0EDB500F0B2010C16EFD0EDB5088
:1027E000040DF350380B216EFD0EDB380F0B070B79
:1027F000206EFD0EDB50800B20102110C06EFC0EF1
:10280000DBAE03D09E9C9D8CF28CC280E552E5CF5E
:08281000DAFFE7CFD9FF120047
:08281800FE0EE3CFE9FFFF0E05
:10282000E3CFEAFFF36AF46AEE5203E0F34AF42AD4
:10283000FBD71200FF0EE3CFF8FFE552FF0EE3CF08
:10284000F7FFE552FF0EE3CFF6FFE552E66AE66AD0
:10285000E66A0900F55209E0FD0EE32A05E1FE0EE5
:10286000E32A02E1FF0EE32AF4D7FD0EE3CF07F0DF
:0E287000FE0EE3CF08F0FF0EE3CF09F01200DA
:02287E00D9CFB0
:10288000E6FFDACFE6FFE1CFD9FFE2CFDAFFACA275
:10289000FED7FC0EDBCFE9FFFD0EDBCFEAFFEF50EA
:1028A000E66E07EC15F0E552FC0EDBCFE9FFDB2A04
:1028B000FD0EDBCFEAFF01E3DB2AEF50E8E1E55252
:0A28C000E5CFDAFFE7CFD9FF1200E1
:0628CA008C6A956A800E85
:1028D000E66EE66A3C0EE66E16EC13F0E552E55243
:1028E000E552C20EE66E220EE66E03D8E552E552C0
:1028F0001200D9CFE6FFE1CFD9FFFD0EDBCFE6FF17
:10290000FE0EDBCFE6FF3FEC14F0E552E552E55258
:06291000E7CFD9FF120021
:0A291600D9CFE6FFDACFE6FFE1CFEC
:10292000D9FFE2CFDAFFF292FD0EDBA202D0F18CEA
:1029300001D0F19CDBA002D0F18E01D0F19E9380FA
:10294000DBAC02D0F18001D0F190DBAE02D0F28896
:1029500001D0F298E552E5CFDAFFE7CFD9FF1200B8
:10296000056A046A036A026A200EE76ED89006368A
:1029700007360836093602360336043605360B505C
:10298000025C0C5003580D5004580E50055809E3D2
:102990000B50025E0C50035A0D50045A0E50055A4B
:0829A000062AE72EE4D712001D
:0829A800D9CFE6FFDACFE6FF0C
:1029B000E1CFD9FFE2CFDAFFFD0EDB507F0BD56E02
:1029C000D76AD66AF294FD0EDBAE02D0F28A01D04D
:1029D000F29AD58EE552E5CFDAFFE7CFD9FF1200A4
:1029E000FF0EE3502D6EEF0E01D0F30EE76EE72ED3
:1029F000F7EF14F00C0E2C6EE76AE72EFDEF14F0E3
:0E2A00002C2EFCEF14F02D2EF5EF14F012002A
:022A0E00D9CF1E
:102A1000E6FFDACFE6FFE1CFD9FFE2CFDAFFACACD9
:102A200004D0AC900201FDB3AC80FD0EDB50AD6E66
:0C2A3000E552E5CFDAFFE7CFD9FF120036
:042A3C00D9CFE6FF09
:102A4000DACFE6FFE1CFD9FFE2CFDAFFC30EC2143F
:102A5000206EFD0EDB407F0B3C0B2010C26EE5525A
:0A2A6000E5CFDAFFE7CFD9FF12003F
:062A6A00056A046A100E6B
:102A7000E76ED89008360936043605360D50045CEA
:102A80000E50055805E30D50045E0E50055A082AF5
:062A9000E72EF0D7120052
:0A2A9600F36AF46AFF0EE124E96E12
:102AA000FF0EE220EA6EED6607D02F0EEF6404D031
:0A2AB0003A0EEF6001D0F32A120085
:062ABA00FF0EE3502D6E3B
:102AC000480E01D04C0EE76EE72EFED7E76AE72EE0
:0A2AD000FED72D2EF7D700001200EC
:062ADA00000EF36E00EE99
:102AE00000F0060E01D81200EA6002D0EE6AFCD7B0
:0A2AF000F350E9601200EE6AFCD713
:062AFA0015EE00F025EED0
:102B000000F0F86A019CC7EC12F0BFEC15F031EC54
:062B100006F0FBD71200E5
:0A2B1600FF0EE350ACBA04D0AF6A22
:102B2000AB8EAC8A949CACA2FED7AD6EF36EF46A09
:022B3000120091
:0E2B3200FF0EE350E84E1200000000D000D06D
:082B400000D0E82EFAD71200C4
:082B4800D9CFE6FFE1CFD9FF70
:0E2B5000FE0EDBCFFEF2E552E7CFD9FF1200FA
:022B5E00303114
:0F2B600032333435363738396162636465660065
:012B6F000164
:0A2B7000C250020B01E0010E12003A
:042B7A00C282120001
:022B7E00120043
:102B8000CE22000000000000000000000000000055
:102B90000000000000000000000000000000000035
:102BA0000000000000000000000000000000000025
:102BB0000000000000000000000000000000000015
:102BC000C122000000000000000000000000000022
:102BD00000000000000000000000000000000000F5
:102BE00000000000000000000000000000000000E5
:102BF00000000000000000000000000000000000D5
:102C000000000000000000000000000000000000C4
:102C100000000000000000000000000000000000B4
:102C200000000000000000000000000000000000A4
:102C30000000000000000000000000000000000094
:092C40000000000000000000008B
:072C4900F52200000000006D
:102C50000000000000000000000000000000000074
:102C60000000000000000000000000000000000064
:102C70000000000000000000000000000000000054
:0B2C8000000000000000000000000049
:020000040030CA
:0100010002FC
:010003001EDE
:010006008178
:00000001FF
